:02000002B0004C
:1040000000400B0092750B00000006000C0005023A
:084010000401B41400000000DB
:0440180060670B00D2
:10401C00034613F8012B002AFBD1181A01387047FC
:10402C0009480A49884208B505D0094A824202D09B
:10403C00121A02F0E5FA0748074A0021121A02F098
:10404C00EDFA014808BD00BFC4E50320F4740B0071
:10405C0034E6032034E60320F0E7032070B5074E66
:10406C00074C02F099F9A41BA4080025AC4200D11E
:10407C0070BD56F8043B98470135F7E7AC740B005C
:10408C00D0740B0000F036B808B500F061F8BDE84C
:10409C00084002F039B901F06DBC01F073BC0000AE
:1040AC0008B5034A03490C2001F0C8FBFEE700BF2A
:1040BC0059550B0074670B000078B0FA80F040097A
:1040CC00704701230370704708B501F053FD034B93
:1040DC0001221A70BDE8084001F04EBDB4E6032081
:1040EC0010B5034C204600F02DFE0023236110BDBB
:1040FC0044E6032013B5144C204601F0C5F9012108
:10410C00204600F066FC4FF00113636102F076F874
:10411C004FF4165102F066F8FFF7E2FF204601F06B
:10412C007FF80221084602F0A7F90221032002F0D1
:10413C00A3F902220023009304494FF0FF331046E9
:10414C0001F0EEFC02B010BD44E60320D5400B009C
:10415C0070B51F4E1F4801F0C0F93378FBB11E4CEF
:10416C00238801339BB22380FFF7BAFF21881948BB
:10417C000A2289B201F06FFE164801F060FE02F0CF
:10418C003DF821880A2289B2054601F064FE2846D2
:10419C0001F055FE0F4801F043F800233370032063
:1041AC0002F094F90D4C10B90123237070BD2378E3
:1041BC00002BFBD00A4B1A7882F001021A701B7884
:1041CC001BB101F0D9FC0023EFE701F0D3FCFAE7B7
:1041DC00B4E6032044E6032042E6032040E6032035
:1041EC00C4E5032010B5094B094A9A600024C3E9C1
:1041FC000044032001F02AFB2146012001F036FB8C
:10420C00BDE810400348072101F010B934E6032043
:10421C000000FFFF44E603202DE9F04F85B01F4658
:10422C00BDF93880BDF83C30A8EB0209A7EB010AB8
:10423C00B9F1000FB8BFC9F10009BAF1000FB8BF4E
:10424C00CAF1000AD14583460C46154604DD3A46B0
:10425C002C4647460D469046BC4205DD2A4645464F
:10426C00904622463C4617463E1BB2B20092A8EB43
:10427C00050282EAE271A1EBE271C6F3C03202FAE6
:10428C0086F64545B4BF01224FF0FF3201917610FE
:10429C000292BC421CDCDBF800200393D145D2F81F
:1042AC001880C7BF294622462A4621465846C04791
:1042BC00019A039BB61AB1B236B2002E05DA029AF5
:1042CC001544009A56182DB236B2013424B2E0E7E8
:1042DC0005B0BDE8F08F704710B404682469A4469B
:1042EC005DF8044B604730B40468BDF80850029583
:1042FC00A46BA44630BC604730B40468BDF80850C9
:10430C000295E46BA44630BC604770B4BDF90C5008
:10431C00BDF810600468CDE90356246CA44670BC4B
:10432C0060472DE9F3411C460368BDF820805B69AA
:10433C0005461646013C34440F4624B298472B6878
:10434C00CDF8048000949C6A28463B463246394698
:10435C00A0472B68DB6A284602B0BDE8F04118473D
:10436C002DE9F3411D460368BDF820805B690446C6
:10437C0017460E469847CDE9007822686B1E3344E9
:10438C00956A20461BB23A463146A8472368DB6A39
:10439C00204602B0BDE8F04118472DE9F3471E4610
:1043AC000368BDF928905B69BDF82C800C46054666
:1043BC00174698472644B4422B680BDACDF8008098
:1043CC00D3F820A021464B463A4628460134D04724
:1043DC0024B2F0E7DB6A284602B0BDE8F047184784
:1043EC0013B502680191B0F90E100091146CB0F97C
:1043FC000C3000221146A04702B010BD2DE9F74346
:10440C0099421646BDF92870BDF82C90026880467A
:10441C000D461C4613D1BE42C8BF3346CDF828907A
:10442C00C4BF3E461F467B1C946B9B1B1BB2324683
:10443C0029464046A44603B0BDE8F0436047BE425F
:10444C000AD19942C2BF0B4625461C46631CCDF8C7
:10445C002890D46B5B1BE9E753699847CDE9007949
:10446C00D8F8003040469F6A324623462946B84762
:10447C00D8F80030DB6A404603B0BDE8F04318477B
:10448C002DE9F3471D460368BDF82C805B69BDF927
:10449C00289004460F46164698472368CDF80080AE
:1044AC00D3F824A032462B4639462046D047236801
:1044BC00CDF8008009F1FF323244D3F824A03946FC
:1044CC002B46204612B2D0472368CDF80080D3F893
:1044DC0020A032464B4639462046D0476B1ED91990
:1044EC002368CDF800801D6A20464B46324609B23F
:1044FC00A8472368DB6A204602B0BDE8F04718479E
:10450C00704701F00303B0F90A208376C907B0F9AC
:10451C00083059BF8381C2818281C38170470000FA
:10452C0030B54281C281074A074D01810024818147
:10453C004FF0FF31C0E90512446005600461047757
:10454C00046230BD01010001946C0B002DE9F04FA9
:10455C0089B0CDE902120268BDF948800493BDF917
:10456C004C3052690593BDF850A00446904718F1A1
:10457C0007024FF0000648BF08F10E024FEAE20BAB
:10458C0001963546039B019ABDF904109A18059BB8
:10459C008B4212B227DD049B33444FF00009069383
:1045AC000FFA89F080451FFA89F117DD4F0705BF17
:1045BC00069BC0106D001D5C18BFEDB22B060AD512
:1045CC00029B206807921944836909B21F46204652
:1045DC005346B847079A09F10109E1E7019B0133FA
:1045EC0001935E44CEE72368DB6A204609B0BDE840
:1045FC00F04F18472DE9F04F2DED028B91B0164678
:10460C00026ABDF874809DF878509DF87C40039147
:10461C001F46BDF8703004938346002A40F0C580D5
:10462C00B0F90C308B4240F34C81B0F90E30B342F0
:10463C0040F34781062313FB0513002B40F3418104
:10464C0006EBC403002B40F33C81037F1BB9AF2F57
:10465C0084BF0137FFB2DBF8003058465B699847DE
:10466C000522099200220592984A07EB8703D3187A
:10467C000C93B3B20693059A0C9B9B5C0793ABB25D
:10468C000B93BDF80C300893039B02FB05F919FA48
:10469C0083F90FFA89F308EE103A08230A93039B67
:1046AC0002EB030A4FF000090FFA8AFA079ADBF8BB
:1046BC000030D20752D5012D1FFA89F23ED1012CC0
:1046CC003CD19B6906991F46049B0A4412B2514681
:1046DC005846B84709F101034FFA83F9079B5B0869
:1046EC0007930A9B013B13F0FF030A93DED1059F4E
:1046FC0001377BB20593099B013B13F0FF03099330
:10470C00B9D1049B43450FD0012DDBF800303BD1D0
:10471C00012C39D10899CDF8008005311C6A32463C
:10472C00082309B25846A047DBF80030DB6A58462C
:10473C0011B0BDEC028BBDE8F04F1847069914FB85
:10474C0002F20A44049901910094DB6918EE101AE4
:10475C001F4612B22B465846B847BBE7049A42454F
:10476C00B8D0012D1FFA89F207D1012C05D19B6914
:10477C0006991F460A444346A8E70699CDF80480DB
:10478C0014FB02F20A44DFE70B9ACDF8048002EB2B
:10479C008201089AE4000A4411460094DC6932460E
:1047AC002B4609B25846A047BEE7137A51681268E7
:1047BC000B92FF1AFFB201EBC70331F837200692B8
:1047CC009A780992DA780C92012D93F9052093F9D5
:1047DC0006A00A9201D8012C57D9BDF928300893AC
:1047EC000FFA8AF30793DBF8003058465B69984759
:1047FC00B3B24FF000080E931AFA86F3C14647463F
:10480C000F930C9B9F428FD2079B0E9A3B4403FB4A
:10481C000423002205920F9A1BB202EB070A08EE42
:10482C00103A0FFA8AFA4346099A0599914241D2F5
:10483C005A1CD2B25B070D9207D1069B06990B9AB4
:10484C0001339BB212F80190069319F0800F12D02D
:10485C00012DDBF80030BDF80C101AD1012C18D149
:10486C000A9A9B691144059A11441E465246049BB0
:10487C0009B25846B047059E0136F3B24FEA4909D2
:10488C0005935FFA89F90D9BCEE70023CDE9073339
:10489C00A9E70598089A024402FB0511049ACDE990
:1048AC000042DB6918EE102A1E4609B22B46584608
:1048BC00B047E0E7099B013798445FFA88F8FFB2EC
:1048CC009FE711B0BDEC028BBDE8F08F89670B0040
:1048DC00F0B5026A85B004460B46002A34D10A2989
:1048EC0008D1438A0282427E03EBC2036382012019
:1048FC0005B0F0BD0D29FAD0E17E007E657E71B168
:10490C00B4F91060062111FB0061B4F90C60B142DE
:10491C00C1BFB4F91210228201EBC5026282E28A95
:10492C000192A28A0092CDE90205B4F91220B4F9E1
:10493C0010102046FFF75EFE237E228A03EB430312
:10494C0002EB43032382D2E70A2907D10023038217
:10495C00417E927A438A01FB0233C7E70D29C6D008
:10496C00157AA942C3D3517A9942C0D351685D1BC1
:10497C00EDB201EBC505A87828B3E97819B3E17E4F
:10498C00267E677E91B195F905100844B4F9101094
:10499C0006FB0011B4F90C00814207DD00202082D7
:1049AC00B4F91210927A02FB07126282E28A019227
:1049BC00A28A0092CDE90267B4F91220B4F9101062
:1049CC002046FFF717FE2979227E238A01FB02334A
:1049DC00B8E7012938BF012101764176704770474D
:1049EC0010B510210446FFF758FB204610BD0EB43D
:1049FC0003B503AB002153F8042B019301F049FAE2
:104A0C0002B05DF804EB03B07047000073B50446C8
:104A1C0008462279A36832B1A3B90B4902B0BDE8AC
:104A2C00704001F005BA094A267B094D0949647B9F
:104A3C00012E18BF2946CDE900140749FFF7D7FF0F
:104A4C0002B070BD054AEFE7F56C0B00EC6C0B0087
:104A5C00F16C0B00ED6C0B000B6D0B00E46C0B00A0
:104A6C0010B5044B03600446C06A08B100F08AFF1D
:104A7C00204610BDE4710B0010B50446FFF7F0FFA3
:104A8C0020465021FFF709FB204610BD002910B528
:104A9C004BDBB0F90C408C4247DD002A45DBB0F90A
:104AAC000E40944241DD847E022C1FD0032C26D074
:104ABC00012C04D10489D24314440A4621B2012B9F
:104ACC0023D0022B32D083BB002A13460489C06A40
:104ADC00B8BFD31DDB1013FB041102F00702012336
:104AEC009340425C22EA030242541EE00489013CDA
:104AFC00611A4489D243224409B212B2DFE74489D5
:104B0C00013C641A114622B2D9E7002A04891346E3
:104B1C00B8BFD31DDB1013FB0411C36A02F00700EE
:104B2C0001228240585C02435A5410BD002A13469D
:104B3C000489C06AB8BFD31DDB1013FB041102F04B
:104B4C000702012303FA02F2435C5A40CCE700004F
:104B5C0070B504461D460026FFF7E2FC114B23609E
:104B6C00666215B901F0E0FC0546FF2384F833308A
:104B7C0084F836309DF9103084F837300A4BA36333
:104B8C00012384F83C30059BA3644FF6FF72069B0F
:104B9C00A286C4E90A562664A4F84460E36420465D
:104BAC0070BD00BFE4710B00306D0B00F8B504460E
:104BBC00806A0D4690B194F9301000F0A5FFA06A00
:104BCC00036800219B689847A06A036829469B6884
:104BDC009847A06ABDE8F84000F09DBF94F93530C5
:104BEC00014698B201F059FC606A20B12946BDE833
:104BFC00F84001F031BA0826802794F9330005EA11
:104C0C00070180B201F049FC94F93400012180B213
:104C1C0001F043FC94F93400002180B201F03DFC1A
:104C2C00013E4FEA5707E8D1F8BD38B50446806A13
:104C3C000D4680B1A16C00F059FF002D204614BF29
:104C4C00A721A621FFF7B2FFA06A88B1E16CBDE8ED
:104C5C00384000F04BBF606A18B104F1380101F024
:104C6C008DF994F93600002180B201F016FCE4E7CE
:104C7C0094F93600012180B201F00FFC606A18B182
:104C8C00BDE8384001F060B938BD2DE9F843044661
:104C9C00806A0D468F1840B394F9301000F034FF41
:104CAC00A06A036800219B6898470126AF42A06A5E
:104CBC0017D01F2E0CD900F02EFF94F93010A06ADB
:104CCC0000F022FFA06A036800219B689847012628
:104CDC00A06A15F8011B036801369B689847F6B269
:104CEC00E4E7BDE8F84300F016BF94F9353001460F
:104CFC0098B201F0D2FBBD4222D0606A15F8019B3C
:104D0C0018B1494601F0A8F9F5E708264FF08008DC
:104D1C0094F9330009EA080180B201F0BEFB94F962
:104D2C003400012180B201F0B8FB94F93400002169
:104D3C0080B201F0B2FB013E4FEA5808E8D1DAE745
:104D4C00BDE8F883B0F90A30DA1D48BF03F10E0252
:104D5C00B0F90830C06AD2105A43002101F05EBC91
:104D6C002DE9FF411E46C36A9DF8288004460F4674
:104D7C001546C3B12046FFF7E5FFB4F90A00B4F9B4
:104D8C000810202821DC202301222038CDE9013213
:104D9C0000EBD07073237339009301EBD171894B05
:104DAC0040F34F0221E0B0F90A30D81D48BF03F19F
:104DBC000E00B4F90830C010584300F0DBFDE0627F
:104DCC000028D7D104B0BDE8F0814038C0F3C03220
:104DDC0002FA80F240230120CDE9013052235239EE
:104DEC000093794B01EBD1715210204641F34F01E6
:104DFC00FFF7ACFBA06A84F83170002878D0002D46
:104E0C0074D1B4F90A30202B0CBF3C253D2584F815
:104E1C003050B8F1000F01D000F06CFEFEB194F9E7
:104E2C00370000281BDB012180B201F025FB94F92F
:104E3C003700012180B201F030FB012000F0C2FDEF
:104E4C0094F93700002180B201F027FB0A2000F012
:104E5C00B9FD94F93700012180B201F01EFBA06A64
:104E6C00002874D0A16C00F041FE04225749204662
:104E7C00FFF70BFF61890139C9B22046FFF796FE97
:104E8C00534904222046FFF700FF94F93130012BDF
:104E9C000CBF102114212046FFF788FE04224D4937
:104EAC002046FFF7F2FEA3684B4A93425CD14B4974
:104EBC0004222046FFF7E9FED9212046FFF776FEB3
:104ECC0094F93130012B0CBF2221F1212046FFF740
:104EDC006DFE204642490622FFF7D7FEA06A002845
:104EEC0063D0E16C00F002FE01206BE76DB28EE73F
:104EFC0094F93500012180B201F0BEFA94F9360024
:104F0C00012180B201F0B8FA94F93600012180B287
:104F1C0001F0C3FA656A3DB1B8F1000F3FF47EAF02
:104F2C00284600F0FDFF79E794F93300012180B2A7
:104F3C0001F0A2FA94F93400012180B201F09CFA3C
:104F4C0094F93400294680B201F0A7FA66E7606A4A
:104F5C0018B104F1380101F011F894F93600002170
:104F6C0080B201F09AFA80E71E4A93420ED11E4994
:104F7C0003222046FFF789FE94F93130012B0CBF38
:104F8C009F21CF212046FFF711FE95E7174A934248
:104F9C0092D1174903222046FFF777FE94F931305E
:104FAC00012B0CBF1021AF21ECE794F93600012145
:104FBC0080B201F072FA606A002895D000F0C4FF4C
:104FCC0092E700BFFC6F0B003C6D0B0044720B00B2
:104FDC0048720B004C720B008000200056720B00C4
:104FEC0050720B00800040005A720B0060001000E1
:104FFC005D720B0070B5002ABDF810503DDBB0F9A6
:10500C000A40944239DD0029BEBF5B181BB2002157
:10501C00B0F90840CE18A642C4BF631A1BB2002BCD
:10502C002BDDC06AD61014FB0611014402F00700F8
:10503C0001228240012DD2B216D0022D0BD0E5B93F
:10504C00D243D2B20B44994217D011F8010B104045
:10505C0001F8010CF7E70B4499420ED011F8010B43
:10506C00504001F8010CF7E70B44994205D011F8B8
:10507C00010B104301F8010CF7E770BDF0B50029E6
:10508C00BDF8145076DBB0F90860B14272DA002A30
:10509C00BEBF9B181BB20022B0F90A40D718A7421A
:1050AC00C4BFA31A1BB2002B64DDC2F3C404C76ACD
:1050BC0016FB041612F00702DBB207EB060423D032
:1050CC00C2F10802D2B22D4993423CBF4FF0FF0C03
:1050DC00A2EB030E895C3CBF4CFA0EFC0CEA0101FE
:1050EC00012D07D0022D2ED04DB917F806C02CEA91
:1050FC00010103E017F806C041EA0C01B9559342CF
:10510C0038D3B0F908100C449A1AD2B2072A0ED927
:10511C00022D1DD113462178C9432170083BB0F9EB
:10512C000810DBB2072B0C44F5D802F007020AB3C7
:10513C00134B012D9B5C1AD0022D1CD0D5B92278B3
:10514C0022EA030315E017F806C081EA0C01D5E743
:10515C00291E18BF01214942C9B213462170083BD0
:10516C00B0F90860DBB2072B3444F7D8DDE72278BE
:10517C0013432370F0BD22785340FAE734720B00CE
:10518C003C720B0070B41446827EBDF80C60022A8F
:10519C000DD0032A18D0012A11D10289E4431444FA
:1051AC0024B203960A46214670BCFFF767BF4289BA
:1051BC000589E44319441444691A24B209B20396CC
:1051CC00224670BCFFF716BF45891944691A09B20B
:1051DC00E7E730B41446827EBDF80850022A0DD0A1
:1051EC00032A18D0012A11D1E2180489A41A24B276
:1051FC0002950A46214630BCFFF7FCBE0289C94322
:10520C001144E2184489A41A09B224B20295224628
:10521C0030BCFFF733BF4289C943114409B2E7E7F9
:10522C002DE9F8430446806A002842D0A16C00F0B6
:10523C005DFC474905222046FFF727FD21890139EE
:10524C002046C9B2FFF7B2FCB4F90A30DE1D48BFE4
:10525C0003F10E06D4E90A052389F61013FB06F6B2
:10526C0015FA86F600283AD094F9301000F04CFC70
:10527C00A06A036840219B6898470127B542A06A41
:10528C0024D01F2F0CD900F046FC94F93010A06AE2
:10529C0000F03AFCA06A036840219B6898470127FC
:1052AC00A06A15F8011B036801379B689847FFB289
:1052BC00E4E7606A18B104F1380100F05FFE94F97C
:1052CC003600002180B201F0E8F8B2E700F023FCD0
:1052DC00A06A78B3E16CBDE8F84300F007BC94F920
:1052EC003500012180B201F0D8F8AE42F0D0606AEE
:1052FC0015F8019B18B1494600F0AEFEF5E70827FA
:10530C004FF0800894F9330009EA080180B201F0EB
:10531C00C4F894F93400012180B201F0BEF894F97C
:10532C003400002180B201F0B8F8013F4FEA580870
:10533C00E8D1DAE794F93600012180B201F0ADF83A
:10534C00606A18B1BDE8F84300F0FEBDBDE8F88313
:10535C0060720B0000210A22C0E900127047002382
:10536C0010B50446C171837188B201F0AFF808B171
:10537C000323A37100F0F2F8206010BD38B50C4681
:10538C0005461146A0B201F077F821462846BDE843
:10539C003840FFF7E4BF38B50446C07901F096F801
:1053AC00A579003825F0080318BF0120C5F3400586
:1053BC008542A3710AD000F0D1F8A379206083F064
:1053CC000203A371A079C0F3C00038BD00F0C6F889
:1053DC002368C01AA3889842F4D3A37903F001037D
:1053EC00AB42EFD000F0BAF8A379206083F0010350
:1053FC0043F00803E5E7000010B5064B03600446D4
:10540C00006D08B100F08AF82046FFF729FB204612
:10541C0010BD00BF70720B0010B50446FFF7ECFF17
:10542C0020467021FEF739FE204610BD30B585B000
:10543C0004460D4601F078F8104A1149CDE90121D6
:10544C004FF0FF3280210346009220462022FFF7C6
:10545C007FFB0C4B23600023C4E9143504F1580086
:10546C00FFF778FF04F16000FFF774FF04F16800A8
:10547C00FFF770FF204605B030BD00BF801A060054
:10548C00A086010070720B0013B50446503000F07A
:10549C003DF8636DD90705D50222042104F15800AB
:1054AC00FFF76CFF636D9A0705D50022032104F109
:1054BC006000FFF763FF636D5B0705D502221146A1
:1054CC0004F16800FFF75AFF012300933C220221EC
:1054DC002046FFF745FC02B010BD10B5436DD9074F
:1054EC00044602D55830FFF756FF636D9A0703D573
:1054FC0004F16000FFF74FFF636D5B0705D504F106
:10550C006800BDE81040FFF746BF10BD08B5024B60
:10551C001B681B6B019308BD4802030008B5024BC6
:10552C001B685B6B019308BD4802030008B5024B76
:10553C001B685B6C019308BD4802030008B5024B65
:10554C001B685B68019308BD1802030008B5024B89
:10555C001B68DB68019308BD1802030008B5024BF9
:10556C001B685B69019308BD1802030008B5024B68
:10557C001B689B68019308BD2C02030008B5024B05
:10558C001B68DB68019308BD2C02030008B5024BB5
:10559C001B681B69019308BD2C02030008B5024B64
:1055AC001B685B69019308BD2C02030008B5024B14
:1055BC001B689B69019308BD2C02030008B5024BC4
:1055CC001B68DB69019308BD2C02030008B5024B74
:1055DC001B681B6A019308BD2C02030008B5024B23
:1055EC001B685B6A019308BD2C02030008B5024BD3
:1055FC001B681B68019308BD2802030008B5024B09
:10560C001B68DB68019308BD2802030008B5024B38
:10561C001B689B69019308BD2802030008B5024B67
:10562C001B68DB69019308BD2802030008B5024B17
:10563C001B681B6A019308BD2802030008B5024BC6
:10564C001B685B6A019308BD2802030008B5024B76
:10565C001B689B6A019308BD2802030008B5024B26
:10566C001B68DB6A019308BD2802030008B5024BD6
:10567C001B681B6B019308BD2802030008B5024B85
:10568C001B685B6B019308BD2802030008B5024B35
:10569C001B681B6C019308BD2802030008B5024B64
:1056AC001B685B69019308BD6402030008B5024BDB
:1056BC001B689B68019308BD6802030008B5024B88
:1056CC001B68DB68019308BD6802030008B5024B38
:1056DC001B681B68019308BD3002030008B5024B20
:1056EC001B685B69019308BD3002030008B5024BCF
:1056FC001B68DB69019308BD3002030008B5024B3F
:10570C001B681B6A019308BD3002030008B5024BED
:10571C001B685B6A019308BD3002030008B5024B9D
:10572C001B68DB6B019308BD3002030008B5024B0C
:10573C001B681B6C019308BD3002030008B5024BBB
:10574C001B685B6C019308BD3002030008B5024B6B
:10575C001B68DB68019308BD3C02030008B5024BD3
:10576C001B681B69019308BD3C02030008B5024B82
:10577C001B685B69019308BD3C02030008B5024B32
:10578C001B689B69019308BD3C02030008B5024BE2
:10579C001B68DB69019308BD3C02030008B5024B92
:1057AC001B681B6A019308BD3C02030008B5024B41
:1057BC001B689B6A019308BD3C02030008B5024BB1
:1057CC001B681B6C019308BD3C02030008B5024B1F
:1057DC001B681B68019308BD4C02030008B5024B03
:1057EC001B685B68019308BD4C02030008B5024BB3
:1057FC001B681B69019308BD4C02030008B5024BE2
:10580C001B685B69019308BD4C02030008B5024B91
:10581C001B689B69019308BD4C02030008B5024B41
:10582C001B68DB69019308BD4C02030008B5024BF1
:10583C001B681B6A019308BD4C02030008B5024BA0
:10584C001B685B6B019308BD6002030008B5024B3B
:10585C001B685B68019308BD2002030008B5024B6E
:10586C001B685B69019308BD2002030008B5024B5D
:10587C001B68DB6A019308BD2002030008B5034BCB
:10588C001B68D3F88830019308BD00002002030088
:10589C0008B5034B1B68D3F89430019308BD000086
:1058AC002002030008B5024B1B68DB6B019308BD9B
:1058BC004402030008B5024B1B685B68019308BDEA
:1058CC004002030008B5024B1B689B68019308BD9E
:1058DC004002030008B5024B1B68DB68019308BD4E
:1058EC004002030008B5024B1B681B69019308BDFD
:1058FC004002030008B5024B1B685B69019308BDAD
:10590C004002030008B5024B1B689B69019308BD5C
:10591C004002030008B5024B1B68DB69019308BD0C
:10592C004002030008B5024B1B681B6A019308BDBB
:10593C004002030008B5024B1B681B6B019308BDAA
:10594C004002030008B5024B1B685B6B019308BD5A
:10595C004002030008B5024B1B681B6C019308BD89
:10596C004002030008B5024B1B685B6C019308BD39
:10597C004002030008B5024B1B681B68019308BD6D
:10598C001C02030008B5024B1B685B68019308BD41
:10599C001C02030008B5024B1B685B6A019308BD2F
:1059AC001C02030008B5024B1B681B6C019308BD5D
:1059BC001C02030008B5024B1B685B6C019308BD0D
:1059CC001C0203000021FFF749BF0000024800231E
:1059DC000360FFF7ABBD00BFC4E6032000224068A4
:1059EC001146FFF79FBF002240681146FFF7AABF80
:1059FC0040680022FFF79EBF4068002281F0010141
:105A0C00FFF788BF002340681A461946FFF77ABF94
:105A1C00002340681A461946FFF76CBF0022406805
:105A2C001146FFF75FBF002240681146FFF74ABFDF
:105A3C00406800220221FFF74DBF002340681A4640
:105A4C00FFF738BF024B03225A60024A1A607047B4
:105A5C00C8E60320C8720B007047F8B50646154619
:105A6C000C468F18BC4206D0336814F8011B9B6897
:105A7C0030469847F6E72846F8BD007C0022FFF731
:105A8C00D5BD007C0021FFF7D9BD007C0021FFF7BC
:105A9C00DDBD007C0021FFF7E1BD007C0021FFF79C
:105AAC00E5BD10B514210446FEF7F7FA204610BDEB
:105ABC0038B5044615464FF47A730022C4E9012325
:105ACC00094B2174084623602946FFF7DFFDBF30E0
:105ADC0008D16B69DB0705D56868FFF753FFE868E9
:105AEC00FFF750FF204638BD04730B00007C0022EA
:105AFC00FFF77CBD0023007C1A461946FFF77EBDDC
:105B0C00007C0022FFF782BDC9B2FFF7F9BF007C11
:105B1C000022FFF783BD0121FFF7F9BF004700000A
:105B2C002DE9FF4100241D460F4690460646FFF71F
:105B3C0045FDA5424FF00403ADF80D408DF80C3037
:105B4C008DF80F40A2BF9DF828308DF80E3003ACB5
:105B5C000749009443463A463046A8BF8DF80D508D
:105B6C00FFF724FDB0FA80F0400904B0BDE8F081E5
:105B7C00295B0B00FFF732BDFFF728BD704710B54E
:105B8C0018210446FEF789FA204610BDF0B5037DB6
:105B9C00062B8DB00E4600F104074FF0000412D016
:105BAC0000F1080515F8011D0A22304600F053F9E2
:105BBC00AF42044419D0002CF4D02E21304600F012
:105BCC003BF90444EEE72F236A4639460A208DF848
:105BDC000040FFF763FD6846FEF71AFA3368024689
:105BEC00DB68694630469847044620460DB0F0BD48
:105BFC0010B5054B0446112240F8043B002100F07F
:105C0C000DFD204610BD00BF2C730B000346074A48
:105C1C0010B543F8042B01F1100251F8044B43F872
:105C2C00044B9142F9D10A781A7010BD2C730B00F9
:105C3C0010B59DF8084044EA032343EA024242EAC5
:105C4C00016104234160037510BD000007B5064BCC
:105C5C000360CB7800938B784A780978FFF7E8FFDC
:105C6C0003B05DF804FB00BF2C730B00014B024A20
:105C7C001A607047D0E6032038730B00002340688D
:105C8C001A46FFF717BE406800220221FFF722BE1A
:105C9C00002240681146FFF715BE002240681146ED
:105CAC00FFF720BE002340681A461946FFF722BEB4
:105CBC00002340681A461946FFF724BE40680021AD
:105CCC00FFF748BE40680021FFF74CBE4068002239
:105CDC0081F00101FFF71EBE40680022FFF72ABECB
:105CEC00002240681146FFF72DBE00224068114685
:105CFC00FFF718BE2DE9F04395B014460D46074644
:105D0C00FFF776FF00211C220DA8009100F086FC05
:105D1C0040230C9320466B460CAA0021FFF7CEFCC7
:105D2C00044600284BD1024601216868FFF7DAFDD2
:105D3C000221804622466868FFF7D4FD009E81460A
:105D4C002146002E3BD0002939D17368022B03D099
:105D5C000A2B11D0F669F4E7B8F1000FFAD071698B
:105D6C0006A8043107ADFFF771FF0FCD3C1D0FC422
:105D7C002B6823704146EDE7B9F1000FEAD0746946
:105D8C00102201A800F04AFC06238DF8143001AD56
:105D9C0004F108031834186859682A4603C20833FA
:105DAC00A3421546F7D101A906A807ADFFF72EFFB0
:105DBC000FCD3C1D0FC42B6823704946CAE70098D1
:105DCC00FFF774FC384615B0BDE8F083024B034A6C
:105DDC001A6000225A607047D4E6032044730B000B
:105DEC00F8B506460D468F180024BD420CD033681A
:105DFC0015F8011B9B6830469847031E01DB1C44B9
:105E0C00F3E7002C08BF1C462046F8BD13B504462A
:105E1C00084659B10191FEF7FBF823680199DB683C
:105E2C000246204602B0BDE81040184702B010BD33
:105E3C0008B5FFF7EBFF08BD03689B68184738B53A
:105E4C000D210546FFF7F8FF0A2104462846FFF707
:105E5C00F3FF204438BD30B58BB00023012A8DF8F8
:105E6C00243098BF0A2209AC0D46B1FBF2F101FBBC
:105E7C00125303F0FF03092B94BF30333733DBB2DB
:105E8C00AA4204F8013DEFD92146FFF7BFFF0BB042
:105E9C0030BD2DE9F04186B000AF05460E46381DE9
:105EAC00142114463B60FFF775FD13280ED8391DDD
:105EBC002846FFF7ABFF04461EB12846FFF7BFFF8D
:105ECC00044420461837BD46BDE8F08100F10803B4
:105EDC0023F00703E846ADEB030D2246411C3B685B
:105EEC006846FFF757FD69462846FFF78FFF0446C3
:105EFC00C546E1E7014B00229A607047DCE60320BF
:105F0C000021FFF71BBC0021FFF710BC10B50446A5
:105F1C0008462170FFF7EAFB00236360204610BDA2
:105F2C0013B504460078FFF7EEFF58B920780190BE
:105F3C004FF6FF71FFF7CAFB019802B0BDE81040A5
:105F4C00FFF7DEBF02B010BD0078FFF7D9BF00002D
:105F5C00400830B51860002418688842E5B206D9AC
:105F6C000134082C02D040081860F5E70725024BD5
:105F7C005B5D137030BD00BF78730B002DE9F043EF
:105F8C0006468FB000780C46FFF7BDFF00281BDBE0
:105F9C0035781422002109A800F040FB0B230022C5
:105FAC0009A92846ADF82430FFF7B0FB9DF82D3039
:105FBC0013B19DF82C5055B10027B946B8460125B0
:105FCC0023795DB1C3B100200FB0BDE8F083DDF8DB
:105FDC0030809DF834909DF83570F1E7002B35D169
:105FEC00A368434508D18DF820908DF82170BDF839
:105FFC002020A3899A42E6D00023A1688DF80F30A7
:10600C000A9804AB0DF10F02FFF7A2FF217985B9B5
:10601C0089B9A36843450ED38DF820908DF8217073
:10602C00BDF82020A3899A4205D1049B434502D197
:10603C00C9E70029F9D100230193637B00939DF8F4
:10604C000F20237B3078FFF769FBBCE7CDE90055C7
:10605C002B462A460121F5E708B50078FFF73EFBF1
:10606C00C0B208BD054B02221A60054B054A9A6066
:10607C000020C3E90000FFF7E9BB00BFF8E60320EE
:10608C00ECE603200000FFFF024B1A68024B1A607B
:10609C00704700BFC8E50320FCE60320704741743D
:1060AC00704708B5007CFFF781FB20EAE07008BD63
:1060BC0008B5007CFFF752FB20EAE07008BD08B57C
:1060CC00007CFFF75BFB40EAE07008BD08B5007C84
:1060DC00FFF74CFB40EAE07008BD007CFFF756BBB5
:1060EC0037B5457C04462DB1207C03B0BDE830406B
:1060FC00FFF72CBB007C0191FFF758FB002801999E
:10610C00F2DC284603B030BD10B514210446FDF76F
:10611C00C4FF204610BD000010B54FF47A7304463E
:10612C00084611460022C4E90123044B23600123D5
:10613C0020746374FFF742FB204610BDA4730B0060
:10614C00417470477047704708B50021007CFFF719
:10615C005DFB40EAE07008BD08B50121007CFFF74B
:10616C0055FB40EAE07008BD08B5007CFFF746FB24
:10617C0020EAE07008BD08B5007CFFF737FB20EA89
:10618C00E07008BD13B50446007C0191FFF736FBA7
:10619C000028019901DC607C20B1207CFFF73EFBDC
:1061AC0020EAE07002B010BD007CFFF73FBB10B5D9
:1061BC0014210446FDF771FF204610BD10B54FF4B5
:1061CC007A73044608460021C4E90113044B23608A
:1061DC000123207463741146FFF7F8FA204610BDB2
:1061EC00D4730B00007C0022FFF7F8BA10B5142210
:1061FC000446002100F012FA204610BD10B50F4CD9
:10620C0088B003A8FFF7F2FF2178BFF35B8F11F082
:10621C0001010FD120460191FDF74EFF019948B1C4
:10622C0003AA0748FFF7CAFF2046FDF74AFF0548B7
:10623C0000F0E0F9024808B010BD00BF00E70320F1
:10624C0004E7032051610B00002240681146FFF760
:10625C0049BB002240681146FFF764BB002240682E
:10626C001146FFF76FBB40680022FFF763BB406825
:10627C00002281F00101FFF74DBB002340681A4654
:10628C001946FFF73FBB002340681A461946FFF733
:10629C0031BB002240681146FFF714BB4068002256
:1062AC000221FFF717BB002340681A46FFF702BB19
:1062BC00024B04225A60024A1A60704718E7032006
:1062CC0004740B00014B1860704700BFCCE5032031
:1062DC0008B50B4B43B1FFF791FF03681B69984757
:1062EC00002801DDAFF30080064B43B100F05CF9F0
:1062FC0003681B699847002801DDAFF3008008BDD7
:10630C00000000000000000008B5FFF7E1FFFFF7F8
:10631C0025F9014B186008BD28E703200548064AFB
:10632C00064908B5121A00F06BF9054B054A1A60BC
:10633C0008BD00BF00F4032004F4032064750B00B7
:10634C0000F403201E1C279A07B5002300931A465D
:10635C006FF07701FFF79CFA03B05DF804FB0000C7
:10636C0007B543880A2B08D0502B0BD1094B1B685F
:10637C004BB103B05DF804EB1847FFF7E5FF03B032
:10638C005DF804FB002300931A466FF07701FFF7CA
:10639C007FFAF4E724E7032010B512480021FFF739
:1063AC0009FB114B1A68114B9A42114B0CBF01227D
:1063BC0000221A7001D0FFF7B1FFFFF7BFF80446B7
:1063CC0000F034F90B4B13B12046AFF300800021E1
:1063DC000848FFF767FABDE8104007480021FFF7AF
:1063EC004DBA00BFD1620B0000F403201E1C279A8B
:1063FC0020E70320000000006D630B00232813B579
:10640C0002D9002002B010BDA0F10B03022B1AD848
:10641C00174C2178BFF35B8F11F001010BD1204693
:10642C000191FDF749FE019928B11248FFF76EFD65
:10643C002046FDF746FE0F4B1878FFF75FF9002852
:10644C00DFD10120DEE7012809D800F06DF800212A
:10645C00007CFFF713F980F00100C0B2D2E70938D5
:10646C000128EED800F0A0F8007CFFF797F9F2E7CE
:10647C00B8E60320BCE60320232838B504460D46B5
:10648C000AD8FF2908D0FFF7B9FF28B129462046C2
:10649C00BDE83840FFF76AB838BD38B504460D463C
:1064AC00FFF76CF8FF2810D0062804D84D2323FAE8
:1064BC0000F0C30709D42046FFF7A0FF28B12946F6
:1064CC002046BDE83840FFF761B838BD10B504462A
:1064DC00FFF754F8031FDBB2012B08D92046FFF756
:1064EC008DFF20B12046BDE81040FFF757B80020C3
:1064FC0010BD704738B50A4B036001230446436155
:10650C000849202000F074F8202560600549A5603A
:10651C00284600F06DF8C4E90305204638BD00BFDD
:10652C001800010038740B0030B50E4D2978BFF3FC
:10653C005B8F11F0010487B011D12846FDF7BCFD2B
:10654C0068B16846FFF7D6FF6A4621460648FFF752
:10655C00AFFA2846FDF7B5FD044800F04BF80248A9
:10656C0007B030BD2CE7032030E70320FF640B009D
:10657C007047000038B5044614252A46002100F067
:10658C004DF825804025074925812846258200F0B5
:10659C002FF804496060284600F02AF8E060204695
:1065AC0038BD00BF38740B0030B50E4D2978BFF3E1
:1065BC005B8F11F0010487B011D12846FDF77CFDEB
:1065CC0068B101A8FFF7D6FF01AA21460648FFF7DC
:1065DC00A3FD2846FDF775FD044800F00BF80248B2
:1065EC0007B030BD44E7032048E703207D650B006E
:1065FC00FDF751BD002301461A46184600F044B879
:10660C000A44914200F1FF3300D1704710B511F8E4
:10661C00014B03F8014F9142F9D110BD02440346DE
:10662C00934200D1704703F8011BF9E738B5104BC2
:10663C001D68AB6B0446B3B91820FFF79BF90246F3
:10664C00A86320B90B4B0C484221FFF7ABF90B495F
:10665C000B4BC0E900130B4B83600B238381002190
:10666C000120C2E90401AB6B00221C615A6138BDE8
:10667C00CCE5032039740B0050740B000E33CDABFA
:10668C0034126DE6ECDE05002DE9F843DFF8B88036
:10669C000646D8F800001F460D46914600F056F805
:1066AC00254B1C6834B9254C1C60254B13B11B6859
:1066BC00C4F8883063681F2B07DDD8F8000000F0A1
:1066CC0047F84FF0FF30BDE8F8834EB3D4F888009C
:1066DC0088B91C4B23B9D8F8000000F038F8F0E763
:1066EC004FF48470FFF746F90028F4D00023C0E97A
:1066FC004033C4F88800636840F8239001229A4024
:10670C0000EB8301D0F800311343C0F80031022EA6
:10671C00C1F8807002BFD0F804311343C0F80431C3
:10672C006368D8F800005A1C0233626044F82350A6
:10673C0000F00EF80020C6E7E8E703205CE7032032
:10674C000000000081590B0030E6032070477047B1
:10675C00704700002D400B0069400B0091400B006E
:10676C0095400B000000000043616C6C206F6E20A4
:10677C0070757265207669727475616C000000002A
:10678C0000003E5B4F5B3E3E6B4F6B3E1C3E7C3EC7
:10679C001C183C7E3C181C577D571C1C5E7F5E1CD5
:1067AC0000183C1800FFE7C3E7FF0018241800FF8F
:1067BC00E7DBE7FF30483A060E2629792926407F89
:1067CC00050507407F05253F5A3CE73C5A7F3E1C98
:1067DC001C08081C1C3E7F14227F22145F5F005F84
:1067EC005F06097F017F006689956A606060606062
:1067FC0094A2FFA29408047E040810207E201008A6
:10680C00082A1C08081C2A08081E101010100C1E40
:10681C000C1E0C30383E3830060E3E0E06000000C2
:10682C00000000005F00000007000700147F147FC9
:10683C0014242A7F2A1223130864623649562050E6
:10684C000008070300001C2241000041221C002A02
:10685C001C7F1C2A08083E080800807030000808BD
:10686C00080808000060600020100804023E51492E
:10687C00453E00427F400072494949462141494DFD
:10688C00331814127F1027454545393C4A49493184
:10689C0041211109073649494936464949291E0003
:1068AC0000140000004034000000081422411414AD
:1068BC00141414004122140802015909063E415DCA
:1068CC00594E7C1211127C7F494949363E41414157
:1068DC00227F4141413E7F494949417F09090901D4
:1068EC003E414151737F0808087F00417F410020E1
:1068FC0040413F017F081422417F404040407F02CD
:10690C001C027F7F0408107F3E4141413E7F0909F4
:10691C0009063E4151215E7F0919294626494949FC
:10692C003203017F01033F4040403F1F2040201FA6
:10693C003F4038403F631408146303047804036138
:10694C0059494D43007F4141410204081020004148
:10695C0041417F04020102044040404040000307D3
:10696C00080020545478407F284444383844444428
:10697C0028384444287F385454541800087E09029F
:10698C0018A4A49C787F0804047800447D4000205F
:10699C0040403D007F1028440000417F40007C04B3
:1069AC007804787C080404783844444438FC18246F
:1069BC00241818242418FC7C080404084854545443
:1069CC002404043F44243C4040207C1C2040201CD8
:1069DC003C4030403C44281028444C9090907C44DF
:1069EC0064544C440008364100000077000000411C
:1069FC0036080002010204023C2623263C1EA1A1FB
:106A0C0061123A4040207A385454555921555579E1
:106A1C0041225454784221555478402054557940A1
:106A2C000C1E527212395555555939545454593902
:106A3C00555454580000457C410002457D420001EC
:106A4C00457C407D1211127DF0282528F07C545590
:106A5C0045002054547C547C0A097F4932494949E9
:106A6C00323A4444443A324A4848303A4141217A15
:106A7C003A42402078009DA0A07D3D4242423D3DDF
:106A8C004040403D3C24FF2424487E4943662B2F44
:106A9C00FC2F2BFF0929F620C0887E0903205454B3
:106AAC0079410000447D413048484A323840402208
:106ABC007A007A0A0A727D0D19317D2629292F2830
:106ACC00262929292630484D40203808080808086E
:106ADC00080808382F10C8ACBA2F102834FA000058
:106AEC007B000008142A142222142A14085500557D
:106AFC000055AA55AA55AAFF55FF55FF000000FFE7
:106B0C0000101010FF00141414FF001010FF00FFF1
:106B1C001010F010F0141414FC001414F700FF0003
:106B2C0000FF00FF1414F404FC141417101F1010B1
:106B3C001F101F1414141F00101010F00000000080
:106B4C001F101010101F10101010F010000000FF7C
:106B5C00101010101010101010FF10000000FF1477
:106B6C000000FF00FF00001F10170000FC04F414CD
:106B7C00141710171414F404F40000FF00F7141485
:106B8C001414141414F700F7141414171410101F01
:106B9C00101F141414F4141010F010F000001F1037
:106BAC001F0000001F14000000FC140000F010F087
:106BBC001010FF10FF141414FF141010101F0000FD
:106BCC000000F010FFFFFFFFFFF0F0F0F0F0FFFF10
:106BDC00FF0000000000FFFF0F0F0F0F0F384444A1
:106BEC003844FC4A4A4A347E02020606027E027E81
:106BFC000263554941633844443C04407E201E20C6
:106C0C0006027E020299A5E7A5991C2A492A1C4C6A
:106C1C007201724C304A4D4D303048784830BC626D
:106C2C005A463D3E494949007E0101017E2A2A2AE5
:106C3C002A2A44445F444440514A444040444A5107
:106C4C00400000FF0103E080FF000008086B6B08A8
:106C5C003612362436060F090F06000018180000ED
:106C6C00001010003040FF0101001F01011E00192F
:106C7C001D1712003C3C3C3C0000000000000000D2
:106C8C0000000000000000000000000000000000F8
:106C9C00DD480B00ED5D0B00AD400B00E3420B003B
:106CAC00E5420B0017430B00F3420B0005430B00AE
:106CBC0025420B00E3420B000F450B000D450B006A
:106CCC002F430B006D430B00A7430B00ED430B0050
:106CDC0009440B008D440B0064656661756C74206F
:106CEC00004D5342004C5342003C53504953657481
:106CFC0074696E67732064656661756C743E003CE4
:106D0C0053504953657474696E67732025732575E8
:106D1C00202573204D4F444525753E000000000092
:106D2C0000000000194A0B00EB490B00ED490B0069
:106D3C0000000000000180000000000000000000C6
:106D4C00038000000000000000000007C0000000ED
:106D5C0000000000000007C0000000000000000060
:106D6C00000FC00000000000000000001FE0000049
:106D7C00000000000000001FE00000000000000008
:106D8C0000003FE00000000000000000003FF000A9
:106D9C0000000000000000007FF000000000000078
:106DAC00001FF87FF0000000000000003FFE7FF0A5
:106DBC00000000000000003FFF7FF000000000001A
:106DCC0000001FFFFBE0000000000000000FFFF9B7
:106DDC00FFC00000000000000FFFF9FFF8000000EA
:106DEC0000000007FFF1FFFF00000000000003FCA3
:106DFC0073FFFF80000000000001FE3FFFFF8000DA
:106E0C000000000000FF1E0FFF000000000000004B
:106E1C007FFE1FFC000000000000003FFFFFF80099
:106E2C000000000000000FDFFFE000000000000089
:106E3C00001F19FFC0000000000000003F3CFF00D5
:106E4C00000000000000007E7CF800000000000044
:106E5C0000007FFE7C0000000000000000FFFFFC33
:106E6C000000000000000000FFFFFE00000000001A
:106E7C00000000FFFFFE0000000000000001FFEF1B
:106E8C00FE0000000000000001FFCFFE000000002B
:106E9C0000000003FF07FE0000000000000003FCE0
:106EAC0007FE0000000000000003F003FE000000DD
:106EBC0000000000018000FE000000000000000047
:106ECC0000007E000000000000000000003E0000FA
:106EDC0000000000000000000C0000000000000793
:106EEC008000FC000003C0000000078001FC0000D3
:106EFC0003C0000000078001FC000003C00000007C
:106F0C00078001E00000001E000000078001E00087
:106F1C0000001E007FE3F79FF9FDE7787BDFC0FFE1
:106F2C00F7FFBFFDFDFF787BDFC0FFF7FFBFFDFD67
:106F3C00FF787BDFC0F0F787BC3DE1FF787BDE009C
:106F4C00F0F787BC3DE1F0787BDE0000F787803DF1
:106F5C00E1E0787BDE007FF7879FFDE1E0787BDE68
:106F6C0000FFF787BFFDE1E0787BDE00F0F787BC20
:106F7C003DE1E0787BDE00F0F787BC3DE1E0787B1B
:106F8C00DE00F0F787BC3DE1E0787BDE00FFF7FF29
:106F9C00BFFDE1E07FFBDFC0FFF7FFBFFDE1E07F5E
:106FAC00FBDFC07CF3F39F3DE1E03E7BCFC00000F4
:106FBC00000000000000000000FFFFFFFFFFFFFFCC
:106FCC00FFFFFFC0FFFFFFFFFD68DB111A31C0FFA1
:106FDC00FFFFFFFD2B5AFB6AEFC0FFFFFFFFFD4BCE
:106FEC005B3B1A33C0FFFFFFFFFD6B5BDB6AFDC031
:106FFC000000600000000000000000000000000025
:10700C0000E0000000000000000000000000000193
:10701C00E00000000000000000000000000001F093
:10702C000000000000000000000000000003F00061
:10703C0000000000000000000000000007F000004D
:10704C00000000000000000000000007F800000035
:10705C00000000000000000000000FF8000000031A
:10706C00C0007E000001E0007F0FF800000003C0AC
:10707C0000FE000001E000FFEFF800000003C0007C
:10708C00FE000001E000FFFFF800000003C000F06C
:10709C000000000F007FFE7FC0000003C000F00066
:1070AC0000000F003FFE7FF83FF1FBCFFCFEF3BC6E
:1070BC003DEFE01FFE7FFF7FFBFFDFFEFEFFBC3DD1
:1070CC00EFE01FC6FFFF7FFBFFDFFEFEFFBC3DEFC7
:1070DC00E00FE3C7FE787BC3DE1EF0FFBC3DEF0084
:1070EC0007FF87FC787BC3DE1EF0F83C3DEF000108
:1070FC00FFFFF0007BC3C01EF0F03C3DEF0001F33E
:10710C007FE03FFBC3CFFEF0F03C3DEF0003E33FDD
:10711C00807FFBC3DFFEF0F03C3DEF0007E73C0057
:10712C00787BC3DE1EF0F03C3DEF0007FFBE00781D
:10713C007BC3DE1EF0F03C3DEF0007FFFE00787BCA
:10714C00C3DE1EF0F03C3DEF000FFFFE007FFBFFA7
:10715C00DFFEF0F03FFDEFE00FFFFF007FFBFFDFF6
:10716C00FEF0F03FFDEFE00FF9FF003E79F9CF9E06
:10717C00F0F01F3DE7E01FF1FF00000000000000F1
:10718C0000000000001F80FF007FFFFFFFFFFFFFDC
:10719C00FFFFFFE01C007F007FFFFFFFFEB46D8848
:1071AC008D18E000001F007FFFFFFFFE95AD7DB541
:1071BC0077E000000F007FFFFFFFFEA5AD9D8D194E
:1071CC00E0000006007FFFFFFFFEB5ADEDB57EE0F1
:1071DC0000000000000000006D4A0B00854A0B0007
:1071EC00DD480B00ED5D0B00994A0B00E3420B00F0
:1071FC00E5420B0017430B00F3420B0005430B0059
:10720C0025420B00E3420B000F450B00374C0B00E3
:10721C00DF510B0091510B00A7430B00ED430B000A
:10722C0009440B008D440B000080C0E0F0F8FCFE1C
:10723C00000103070F1F3F7FAED580A8D300408D00
:10724C002000A1C8DB40A4A62EAFDA02818FDA128F
:10725C0081DA02812200FF21000000000000000002
:10726C000000000005540B0025540B00DD480B00FA
:10727C00ED5D0B00994A0B00E3420B00E5420B005D
:10728C0017430B00F3420B0005430B0025420B0088
:10729C00E3420B000F450B00374C0B00DF510B008A
:1072AC0091510B00A7430B00ED430B0009440B005D
:1072BC008D440B000000000000000000475A0B003A
:1072CC003D5A0B00335A0B00295A0B001D5A0B0068
:1072DC00115A0B00C95C0B00D15C0B00055A0B005A
:1072EC00FD590B00F3590B00E9590B00015D0B0024
:1072FC000000000000000000655A0B00AF5A0B00A4
:10730C00875A0B00675A0B008F5A0B00975A0B00C9
:10731C009F5A0B00A75A0B00000000000000000051
:10732C00995B0B00895B0B008B5B0B006170700031
:10733C000000000000000000895C0B00935C0B0057
:10734C009D5C0B00A75C0B00B15C0B00BD5C0B00E3
:10735C00C95C0B00D15C0B00D95C0B00E55C0B002D
:10736C00ED5C0B00F75C0B00015D0B0000081018C6
:10737C002028303825592D256D2D25645425483A63
:10738C00254D3A2553257A0061736374696D650048
:10739C000000000000000000A9600B0015610B004C
:1073AC00ED600B00ED5D0B00BD600B00D9600B00B8
:1073BC00CB600B00E7600B00AB600B00AF600B0009
:1073CC00000000000000000053610B00BB610B00CB
:1073DC0091610B00ED5D0B0083610B0055610B009F
:1073EC0065610B00B5610B0075610B004D610B0005
:1073FC000000000000000000B3620B00A9620B004B
:10740C009F620B0055620B0093620B0087620B00AE
:10741C00C95C0B00D15C0B007B620B0073620B0030
:10742C0069620B005F620B00015D0B000052454569
:10743C004E54206D616C6C6F63207375636365656E
:10744C00646564002F746D702F6A656E6B696E7362
:10745C002D4743432D31302D706970656C696E6515
:10746C002D34385F32303230313132345F31363096
:10747C00363138303633392F7372632F6E65776C33
:10748C0069622F6E65776C69622F6C6962632F730A
:10749C0074646C69622F72616E642E63000000006C
:1074AC00F1410B00D9590B00515A0B00795C0B00C0
:1074BC00D95D0B00015F0B0071600B0095600B0038
:0474CC00BD620B0092
:1074D000040000001400000003000000474E5500A7
:1074E000387128FF12C145B3BA73277E4E90DEE58E
:0474F0007A4F8983C3
:1074F4000100000094730B00D0E50320000000009D
:107504000000000000000000000000000000000077
:107514000000000000000000000000000000000067
:107524000000000000000000000000000000000057
:107534000000000000000000000000000000000047
:107544000000000000000000000000000000000037
:10755400000000000000000000000000ECE7032031
:047564000000000023
:10756E0000000102030405060708090A0B0C0D0EA4
:10757E000F101112131415161718191A1B1C1D1E95
:04758E001F20280092
:0475920078563412E1
:04000003B000401CED
:00000001FF
